:020000040800F2
:10000000F8A00020450100088712000887110008A9
:1000100085120008DD0100088520000800000000AE
:10002000000000000000000000000000F11D0008BA
:10003000F901000800000000391D0008F31D000848
:100040005F0100085F0100085F0100085F01000810
:100050005F0100085F0100085F0100085F01000800
:100060005F0100085F0100085F0100085F010008F0
:100070005F0100085F0100085F0100085F010008E0
:100080005F0100085F0100085F0100085F010008D0
:100090005F0100085F0100085F0100085F010008C0
:1000A0005F0100085F0100085F0100085F010008B0
:1000B0005F0100085F0100085F0100085F010008A0
:1000C0005F0100085F0100085F0100085F01000890
:1000D0005F0100085F0100085F0100085F01000880
:1000E0005F0100085F0100085F0100085F01000870
:1000F0005F0100085F0100085F0100085F01000860
:100100005F0100085F0100085F0100085F0100084F
:100110005F0100085F0100085F0100085F0100083F
:100120005F0100085F0100085F0100085F0100082F
:10013000DFF80CD000F040F800480047E922000842
:10014000F8A000200648804706480047FEE7FEE783
:10015000FEE7FEE7FEE7FEE7FEE7FEE7FEE7FEE777
:10016000691E000831010008D2B201E000F8012B3D
:10017000491EFBD270470022F6E710B513460A4627
:1001800004461946FFF7F0FF204610BD30B50B4678
:10019000014600202022012409E021FA02F59D42B7
:1001A00005D303FA02F5491B04FA02F52844151E8B
:1001B000A2F10102F1DC30BD064C074D06E0E0681B
:1001C00040F0010394E8070098471034AC42F6D39E
:1001D000FFF7B2FF207D0008407D0008FEE7000029
:1001E00001B54FF47A7301226946024800F038FEE7
:1001F00008BD00005C000020704700002DE9F047BA
:1002000081468A4616264FF48478102000F0C2F802
:100210000024002504FB06F709EB0500385C00F01C
:10022000D3F86D1CADB2B542F6D3641CA4B24445FC
:10023000EFD3112000F0C8F8132000F0ABF8002431
:10024000002504FB06F700BF0AEB0500385C00F050
:10025000BBF86D1CADB2B542F6D3641CA4B24445E4
:10026000EED3112000F0B0F8122000F093F8BDE8B2
:10027000F04700F015B9000010B5454C01220221ED
:10028000204600F04AFAC82000F03CF90022022182
:10029000204600F042FAC82000F034F90122022181
:1002A000204600F03AFAC82000F02CF9042000F0B3
:1002B00071F800F0F5F8002000F06CF8AF2000F0C5
:1002C00083F8302000F066F83A2000F07DF8012035
:1002D00000F060F8032000F077F8002000F074F8D8
:1002E0002B2000F071F82B2000F06EF8092000F0B0
:1002F0006BF8062000F04EF8072000F065F80720A4
:1003000000F062F8172000F05FF8F82000F042F8E3
:10031000602000F059F8A52000F056F8F82000F011
:1003200039F8892000F050F8A52000F04DF8F820A9
:1003300000F030F8902000F047F8002000F044F87A
:10034000F82000F027F8932000F03EF82A2000F073
:100350003BF8F82000F01EF8732000F035F841203B
:1003600000F032F8822000F015F8122000F02CF88E
:10037000502000F00FF8872000F026F800F03EF83B
:10038000162000F007F8002000F01EF8002010BD35
:100390000008014070B50B4C0546002204212046A0
:1003A00000F0BBF900221021204600F0B6F92846E3
:1003B000FFF716FF2046BDE870400122102100F033
:1003C000ACB900000008014070B50B4C0546012295
:1003D0000421204600F0A1F900221021204600F05F
:1003E0009CF92846FFF7FCFE2046BDE8704001223C
:1003F000102100F092B900000008014070B52020E3
:10040000FFF7C8FF1C4D0024285DFFF7DDFF641CCB
:100410002C2CF9D32120FFF7BDFF174D00242C35DC
:10042000285DFFF7D1FF641C2A2CF9D32220FFF7A7
:10043000B1FF114D00245635285DFFF7C5FF641C40
:100440002A2CF9D32320FFF7A5FF0B4D002480357C
:10045000285DFFF7B9FF641C2A2CF9D32420FFF78D
:1004600099FF054D0024AA35285DFFF7ADFF641CF8
:100470002A2CF9D370BD0000A026000810B550202A
:10048000FFF788FFF720FFF79FFF0220FFF782FFAB
:100490000720FFF77FFFBDE81040A520FFF794BFBE
:1004A00010B509A001F0F0FD0D4C02E0642000F051
:1004B00029F80821204600F02BF90028F6D0BDE8E5
:1004C000104008A001F0E0BD44656275673A206500
:1004D0002D506170657220627573790D0A000000FD
:1004E0000008014044656275673A20652D506170CF
:1004F000657220627573792072656C656173650D34
:100500000A00000070B5044600F00CF90546601CB6
:1005100002D004480078044400F004F9401BA042D3
:10052000FAD370BD280000202DE9F84FDFF8B8A1FC
:1005300000220AF1040B144601274FF00F090BF1BA
:10054000040E00BF0B6807FA04F52B40AB4274D1D0
:10055000DFF898C14E68A6EB0C0866452BD00DDC81
:10056000032E34D005DC36B3012E19D0022E2FD144
:100570001BE0112E16D0122E2AD119E0B8F5881FD3
:1005800019D006DCB8F5803F15D0B8F5801F1FD113
:1005900011E0B8F5001F0ED0B8F5041F18D10AE01D
:1005A000CA6815E0CA68121D12E0CA6808320FE076
:1005B000CA680C320CE08A682AB1012A4FF008029E
:1005C00003D0456104E0042202E0056100E000225E
:1005D000FF2B01D8064601E000F104064FEA84052E
:1005E00001D9A5F12005D6F800C009FA05F82CEAD2
:1005F000080C02FA05F54CEA050CC6F800C04D6877
:10060000ED006AD53A4DAE6946F00106AE61AD69BE
:1006100024F0030605F001050095364D06EB050CA8
:10062000DCF80850A6074FEA167809FA08F6B54331
:10063000314EB04202D100261AE04EE02F4EB042B9
:1006400001D1012614E02E4EB04201D102260FE066
:100650002C4EB04201D103260AE02B4EB04201D10C
:10066000042605E0294EB04201D1052600E0062609
:1006700006FA08F62E43CCF808604D68DAF80060F8
:10068000ED03554601D51E4300E09E432E604D68A4
:10069000AD0305D5DBF800601E43CBF8006004E035
:1006A000DBF800509D43CBF800504D68DEF8006049
:1006B000ED02754601D51E4300E09E432E604D6855
:1006C000AD0205D5084D0C352E681E432E6004E0A2
:1006D000054E0C3635689D433560641C102CFFF4C4
:1006E00031AFBDE8F88F0000000401400000111098
:1006F000001002400000014000080140000C0140D1
:10070000001001400014014000180140001C01408D
:100710008068084000D0012070470AB1016170472D
:100720000904FBE7014880687047000028000020AA
:1007300002488168027811448160704728000020D7
:10074000074810B5016841F010010160032000F076
:1007500089F8002000F006F800F024F8002010BD11
:100760000020024070B50D4D04464FF47A71287890
:10077000B1FBF0F00A490968B1FBF0F000F031FC80
:1007800048B9102C07D200222146501E00F04AF82A
:1007900000206C6070BD012070BD000028000020AA
:1007A000340000201D4808B5816941F001018161D4
:1007B000806900F001000090032000F053F800224F
:1007C00011466FF00B0000F02DF8002211466FF07B
:1007D0000A0000F027F8002211466FF0090000F02F
:1007E00021F800221146501F00F01CF8002211468B
:1007F000101F00F017F800221146901E00F012F8AA
:1008000000221146501E00F00DF80548416821F005
:10081000E06141F00071416008BD0000001002403D
:1008200000000140F0B40E4B1B680C46C3F30223DA
:10083000C3F10705042D00D90425191D072901D28C
:10084000002300E0DB1E012606FA05F1491E2140C7
:1008500099409E40761E16403143F0BC00F014BD16
:100860000CED00E0064900F0070208684FF6FF03B0
:10087000184040EA0220034A104308607047000015
:100880000CED00E00000FA052DE9F047DFF83C81AF
:1008900005460E46D8F8000000F00700B0420CD222
:1008A000D8F8001021F007013143C8F80010D8F83B
:1008B000000000F00700B04263D12878444C800764
:1008C00005D56068A96820F0F000084360602878CA
:1008D000C00745D06868012816D02168022816D0C4
:1008E000890700294DDA616821F003010143616045
:1008F000FFF718FF6968074641F2883001290FD0D9
:100900000229814619D027E021688903E9E7890196
:10091000E7E700BFFFF706FFC11B494501D918E013
:1009200081466068C0F381000128F3D118E000BF60
:10093000FFF7F8FEC11B49450BD86068C0F3810082
:100940000228F5D10CE000BFFFF7ECFEC11B4945C2
:1009500002D90320BDE8F087606810F00C0FF3D1D6
:10096000D8F80010404601F00701B1420BD90168E8
:1009700021F0070131430160006800F00700B04238
:1009800001D00120E6E72878400705D56068E968CE
:1009900020F4E060084360602878000706D56068AE
:1009A000296920F4605040EAC100606000F03CF822
:1009B0006168084AC1F30311515CC84006490860E8
:1009C0000020FFF7CFFE0020C4E700000020024017
:1009D00000100240807C00083400002001480068BC
:1009E0007047000034000020044805490068496849
:1009F000044AC1F30221515CC84070473400002012
:100A000000100240907C00080448054900684968CD
:100A1000044AC1F3C221515CC84070473400002031
:100A200000100240907C000812A185B00FC98DE82B
:100A30000F0014A0144A006804905168134801F094
:100A40000C03042B10D0082B0ED1C1F38343C90330
:100A50001DF803000AD5516804AAC1F34041515C56
:100A60000A4A5043B0FBF1F005B0704708494843CB
:100A7000FAE7000002030405060708090A0B0C0D3B
:100A80000E0F1010010200000010024000127A0048
:100A900000093D002DE9F84F04460078B94DC00724
:100AA00048D06868C0F38100012807D06868C0F3A7
:100AB0008100022809D16868C00306D52868800330
:100AC00038D5606800286FD034E06068B0F5803FAA
:100AD0000BD010B1B0F5A02F11D0286820F48030D1
:100AE0002860286820F4802002E0286840F48030E4
:100AF0002860606888B1FFF715FE064609E028689F
:100B000040F480202860F0E7FFF70CFE801B64288B
:100B100075D828688003F7D50CE0FFF703FE06467A
:100B200005E000BFFFF7FEFD801B6428F0D82868B1
:100B30008003F7D42078944E80074FF001094FF0DE
:100B400000083BD5686810F00C0F07D06868C0F348
:100B50008100022809D16868C00306D4286880078C
:100B600014D5206901281FD110E02069B0B1C6F862
:100B70000090FFF7D7FD074605E000BFFFF7D2FD65
:100B8000C01B0228C4D828688007F7D52868616987
:100B900020F0F80040EAC10028600FE0C6F80080AD
:100BA000FFF7C0FD074606E0E9E000BFFFF7BAFD2A
:100BB000C01B022823D828688007F7D420780007B4
:100BC0002CD57248A169D9B1C0F80090FFF7AAFDF1
:100BD000074604E0FFF7A6FDC01B02280FD8686A8D
:100BE0008007F7D56A484FF4FA510068B0FBF1F07E
:100BF000009000BF0098411E0091FAD20EE080E004
:100C0000C0F80080FFF78EFD074604E0FFF78AFD7D
:100C1000C01B022875D8686A8007F7D4207840077F
:100C200060D5E8690027C00008D4E86940F080502A
:100C3000E861E869012700F080500090554801689C
:100C4000C90513D40168834641F480710160FFF740
:100C500069FD824606E000BFFFF764FDA0EB0A00D5
:100C600064284ED8DBF80000C005F5D5E0680128FF
:100C70000AD008B1052813D0286A20F001002862A4
:100C8000286A20F0040002E0286A40F0010028628F
:100C9000E06841F2883B98B1FFF744FD82460BE0E3
:100CA000286A40F004002862EEE700BFFFF73AFD33
:100CB000A0EB0A0159455AD8286A8007F6D50CE0FE
:100CC000FFF730FD824605E0FFF72CFDA0EB0A019F
:100CD00059454CD8286A8007F6D41FB1E86920F03E
:100CE0008050E861E06988B36968C1F38101022935
:100CF00045D00228C6F8608004D0FFF713FD0446F3
:100D000038E034E0FFF70EFD074604E0FFF70AFD88
:100D1000C01B02282BD828688001F7D4206AB0F5C0
:100D2000803F05D16868A16820F4003008436860FE
:100D3000D4E908010843696821F474110843686024
:100D4000C6F86090FFF7EEFC044606E015E000BF31
:100D5000FFF7E8FC001B022809D828688001F7D5B6
:100D60000BE000BFFFF7DEFC001B022802D90320C6
:100D7000BDE8F88F28688001F4D40020F8E701204E
:100D8000F6E70000001002400000424280044242A8
:100D9000340000200070004070B5040005D000252C
:100DA000A56294F8510010B104E0012070BD204606
:100DB00000F034F8022084F851002068016821F026
:100DC00040010160D4E901010843D4E90312114351
:100DD000084361690843218B01F400710843E1690C
:100DE0000843216A0843A16A084321680860A06992
:100DF000042101EA1040616A0843216848602168C3
:100E0000E06A08612068C16921F40061C16165651B
:100E1000012084F85100002070BD000000B500687A
:100E20000C4985B0884212D10B48816941F4805148
:100E300081618069694600F480500490A020009090
:100E400002200190032003900448FFF76DFB05B0DA
:100E500000BD0000003001400010024000080140C9
:100E60002DE9F84F044690F85000002699461746A1
:100E70000D4601280DD04FF0010B84F850B0FFF75C
:100E800051FC804694F85100B246012804D0022655
:100E900094E00220BDE8F88F002D7BD0002F79D0A0
:100EA000032084F85100C4F854A02563A786E78680
:100EB000C4F838A0A4F83CA0A4F83EA0C4F844A00C
:100EC000C4F840A0A068B0F5004F04D120680168C4
:100ED00041F48041016020680168490603D401683B
:100EE00041F040010160E068B0F5006F606804D037
:100EF00030B3E08E012823D03EE010B1E08E01280F
:100F00001AD135F8021B206805E02068816889073E
:100F100006D535F8021BC160E08E401EE0860BE06E
:100F2000B9F1000F34D0B9F1FF3F05D0FFF7FAFB5C
:100F3000A0EB080149452BD2E08E0028E5D11EE048
:100F4000216815F8010B087306E02068816889079D
:100F500006D515F8011B0173E08E401EE0860BE0FC
:100F6000B9F1000F14D0B9F1FF3F05D0FFF7DAFB5C
:100F7000A0EB080149450BD2E08E0028E5D14B4695
:100F8000012202212046CDF8008000F0E6FE10B1DB
:100F9000032613E011E042464946204600F0CDFE0C
:100FA00018B101262020606508E0A06818B9206803
:100FB000C16880680090606D00B1012684F851B06E
:100FC00084F850A0304665E74FF0E0210428086916
:100FD00003D020F004000861704740F00400FAE7F5
:100FE000704710B5401EB0F1807F01D3012010BDC5
:100FF0004FF0E02460610F21601700F045F90020F8
:10100000A06107202061002010BD10B5FFF7E8FFA8
:1010100010BD70B5040004D094F83900002510B15B
:1010200006E0012070BD84F83850204600F022F818
:10103000242084F839002068C16821F40051C1607F
:10104000204600F035FF2068016921F490410161DC
:101050002068416921F02A0141612068C16841F49A
:101060000051C160E563202084F8390084F83A001B
:10107000002070BD10B50068114986B088421DD1AE
:101080001048816941F48041816180690E4C00F40F
:10109000804004904FF400700090022001900320E3
:1010A000039069462046FFF73FFA00212015CDE95D
:1010B0000001029169462046FFF736FA06B010BDDE
:1010C0000038014000100240000801402DE9F843BB
:1010D000044690F839001F4616460D46202850D188
:1010E000A5B19EB194F8380001284AD0012084F8B7
:1010F00038004FF00008C4F83C80212084F8390003
:10110000FFF710FBA6848146E68426E00120BDE8B7
:10111000F883E08C401EE084A0684B46B0F5805F09
:101120004FF000024FF080012046009703D000F0FE
:1011300077FFE8B90DE000F073FFC8B9288821688F
:10114000C0F308004860206908B16D1C05E0AD1CC3
:1011500003E0216815F8010B4860E08C0028D8D125
:101160004B46002240212046009700F059FF08B16D
:101170000320CCE7202084F8390084F83880002050
:10118000C5E70220C3E7FEE7124810B5816986B0C3
:1011900041F00401816180690F4C00F0040004906B
:1011A000002216212046FFF7B8FA162000900120F1
:1011B00001900220039069462046FFF7B5F900210F
:1011C0000820CDE90001029169462046FFF7ACF9FD
:1011D00006B010BD0010024000080140114810B5D3
:1011E0000F4901604FF48271416000218160C1604C
:1011F0004FF400720161C0E905122822C0E90721FD
:10120000416281620A21C162FFF7C6FD002805D054
:10121000BDE81040272104A000F035BF10BD00003C
:10122000003001405C0000202E2E2F5372632F737C
:1012300070692E63000000000D4810B50B49016075
:101240004FF4E1314160002181600C22C160C0E9AE
:1012500004128161C161FFF7DCFE002805D0BDE802
:101260001040242103A000F00EBF10BD0038014043
:10127000B40000202E2E2F5372632F757361727489
:101280002E630000FEE770470907090E002806DA02
:1012900000F00F0000F1E02080F8141D704700F10D
:1012A000E02080F80014704730B500210A4AC3B22C
:1012B0000DE0002006E000BF01FB04041568401C9F
:1012C00080B22B55548A8442F6D8491C89B2908A40
:1012D0008842EED830BD00004400002070B50022E6
:1012E000094B0DE0002106E002FB04141E68055DB9
:1012F000491C355589B25C8A8C42F5D8521C92B291
:10130000998A9142EED870BD440000202DE9F05F2B
:1013100081462A481E46DDF828B0838888464B451A
:1013200002D3C188414504D2BDE8F05F24A000F09B
:10133000ABBEB088410700D0012101EBD000203ABC
:10134000F1885043484331684FF0800A0F18002558
:101350002FE0002424E000BFBBF1FF0F3A7804F037
:1013600007012AFA01F002EA000201D00AB908E0F6
:1013700082B108EB050081B209EB040080B20B9A40
:1013800006E008EB050081B209EB040080B25A4682
:1013900000F06AFCE043400700D17F1C641CA4B24B
:1013A000B088A042D8D83079400700D07F1C6D1C8F
:1013B000ADB2F088A842CCD8BDE8F09F4400002030
:1013C00044656275673A205061696E745F4472616A
:1013D000774368617220496E707574206578636523
:1013E00065647320746865206E6F726D616C206433
:1013F0006973706C61792072616E67650D0A000017
:101400002DE9FF4F8046834885B00F4684881299A6
:10141000444502D3C088B84205D809B07E48BDE82B
:10142000F04F00F031BE03200024A0EB420015B2C3
:101430000FFA80FA01297AD0E9E0264661E000BF80
:101440004FF0010908EB040007EB060B02901FFAAE
:101450008BF1CDF8009080B24B46089A00F0CEF99F
:10146000A8EB040004901FFA8BF1CDF8009080B235
:101470000123089A00F0C2F93819CDE9009081B231
:10148000A8EB060B1FFA8BF00123089A00F0B6F9BF
:10149000381B039081B2CDF800901FFA8BF0012326
:1014A000089A00F0ABF90498A7EB060B1FFA8BF132
:1014B000CDF8009080B20123089A00F09FF90298BD
:1014C0001FFA8BF1CDF8009080B20123089A00F04A
:1014D00095F9039808EB060B81B2CDF800901FFA3E
:1014E0008BF00123089A00F089F90198CDF800905B
:1014F00081B21FFA8BF00123089A00F07FF9761C65
:1015000036B2AE429CDDBAF1000F06DA0AEB840077
:10151000801D0FFA80FA08E009E0611B0AEB8100E8
:101520000A306D1E0FFA80FA2DB2641C24B2AC4250
:1015300083DD09B0BDE8F08F08EB0400012607EB5E
:10154000050902901FFA89F1009680B2139B089A50
:1015500000F054F9A8EB040003901FFA89F10096FB
:1015600080B2139B089A00F049F93819CDE9006060
:1015700081B2A8EB05091FFA89F0139B089A00F0C5
:101580003DF9A7EB040B1FFA8BF11FFA89F00096C7
:10159000139B089A00F032F90398A7EB05091FFA8C
:1015A00089F1009680B2139B089A00F027F90298FF
:1015B0001FFA89F1009680B2139B089A00F01EF979
:1015C00008EB05091FFA8BF11FFA89F00096139BAF
:1015D000089A00F013F90198009681B21FFA89F079
:1015E000139B089A00F00AF9BAF1000F05DA0AEB2A
:1015F0008400801D0FFA80FA07E0611B0AEB81006E
:101600000A306D1E0FFA80FA2DB2641C24B2AC426F
:1016100092DD8EE744000020DC7C00082DE9FE4FBF
:101620001D46304B16469A88824206D3DB888B4291
:1016300003D3B24201D3AB4204D2BDE8FE4F2AA08D
:1016400000F022BD83468A46321A00D5821B91469D
:101650006A1A002A00DD4A1B90464FF0FF32B3455C
:1016600001D2012000E010460290AA4500D20122DA
:1016700009EB0804002701927F1C0D98FFB2012896
:1016800005D10320B7FBF0F100FB1170F0B1012090
:101690000090514658460E9B0C9A00F0AFF800BFE0
:1016A000B8EB440F06DCB3451AD0029844445844C2
:1016B0001FFA80FBB9EB440FDEDBAA4510D001997D
:1016C0004C440AEB01001FFA80FAD5E70120009094
:1016D000FF22514658460E9B00F090F80027DFE7A6
:1016E000BDE8FE8F4400002044656275673A2050D3
:1016F00061696E745F447261774C696E6520496EF2
:1017000070757420657863656564732074686520FE
:101710006E6F726D616C20646973706C6179207298
:10172000616E67650D0A00002DE9FF4FADF5037D81
:101730008846DDE990BA814600244FF4807715464B
:101740002646394642A8FEF716FD394602A8FEF79E
:1017500012FD194842AA83884B4503D3C38802A8C7
:10176000434512D215A000F08FFC0DF5077DBDE8B2
:10177000F08F00BF95FBF1F301FB135395FBF1F5DF
:1017800030330355641C24B200E00A21002DF1D14E
:101790001146002C08DD031913F8013C8B55761C0B
:1017A000641E36B224B2F4E7CDE900BA4146484699
:1017B000869B00F0CBF9D8E74400002044656275B1
:1017C000673A205061696E745F4469734E756D208D
:1017D000496E7075742065786365656473207468FC
:1017E00065206E6F726D616C20646973706C6179D5
:1017F0002072616E67650D0A000000002DE9F05F40
:10180000814626481C46884683880A9993464B455C
:1018100002D3C288424504D2BDE8F05F20A000F0A8
:1018200033BC012901D0002634E00025681E00EBFE
:10183000440718E009EB05000026A0EB040A0EE0BF
:10184000BAF1000F0DD408EB0600001B09D481B2D9
:101850001FFA8AF05A4600F007FA761C36B2B742F1
:10186000EEDC6D1C2DB2AF42E4DCBDE8F09F00253C
:1018700009EB06077F1E09E008EB0500401E81B258
:10188000B8B25A4600F0F0F96D1C2DB2A542F3DB58
:10189000761C36B2A642EADBE7E7000044000020EF
:1018A00044656275673A205061696E745F44726185
:1018B00077506F696E7420496E7075742065786317
:1018C0006565647320746865206E6F726D616C204D
:1018D000646973706C61792072616E67650D0A00CE
:1018E0002DE9FE4F8246274891460C46DDE90D253D
:1018F00081880C9E1F46514506D3C088A04203D361
:10190000494501D3B84204D2BDE8FE4F1EA000F005
:10191000BBBB002080465AB90EE00096CDE9018598
:1019200023464A4619465046FFF778FE641CA4B287
:10193000BC42F2D3BDE8FE8F0096CDE90185234677
:101940004A4619465046FFF769FE0096CDE90185E3
:1019500052463B4621461046FFF760FE0096CDE911
:1019600001854A46234639461046FFF757FE009642
:10197000CDE901853B46524619464846FFF74EFEE3
:10198000D8E700004400002044656275673A2049AA
:101990006E7075742065786365656473207468651E
:1019A000206E6F726D616C20646973706C61792058
:1019B00072616E67650D0A002DE9F05F1D46904665
:1019C00006468A46DDF828B0B6E07F294FF00000D1
:1019D00054D8AA884CE053232C68434314F813309E
:1019E0008B4244D153214843022101EB400004EBD8
:1019F0000009002737E000242CE000BF4FEAE47024
:101A000004EB507020F00700A4EB0002BBF1FF0FC5
:101A100099F800104FF0800020FA02F001EA00016E
:101A200001D009B907E071B10AEB070081B23019A2
:101A300080B20B9A05E00AEB070081B2301980B240
:101A40005A4600F011F940482040072801D109F119
:101A50000109641C2889A042D0DC287A400701D003
:101A600009F101097F1C6889B842C4DC02E0401C0E
:101A70008242B0DC08F10108E8885CE00127AB880D
:101A800054E053222C68424314F812C08C454CD1C8
:101A900007EB4202A45C98F80120944245D15322FE
:101AA00050430222296802EB400001EB00090027A5
:101AB00037E000242CE000BF4FEAE47004EB5070E4
:101AC00020F00700A4EB0002BBF1FF0F99F8001013
:101AD0004FF0800020FA02F001EA000101D009B9BC
:101AE00007E071B10AEB070081B2301980B20B9A9E
:101AF00005E00AEB070081B2301980B25A4600F0C7
:101B0000B3F811482040072801D109F10109641CEC
:101B10002889A042D0DC287A400701D009F10109C8
:101B20007F1C6889B842C4DC02E0401C8342A8DC08
:101B3000288908F10208064498F8001000297FF46B
:101B400044AFBDE8F09F0000070000802DE9FC5F76
:101B500080461B4889460D4681884446DDF834B0EE
:101B60001E461746A14203D3C1888246A94222D20B
:101B7000BDE8FC5F134800F087BAB088BAF80430BB
:101B80000119994203D9F188444629448DB2F1885C
:101B9000BAF806002944814201D944464D460C99C1
:101BA000CDE9001B334629462046FFF7AFFBB0883E
:101BB0007F1C204484B23A78002ADED1BDE8FC9F25
:101BC00044000020987C00082DE9F041134C0E469B
:101BD0000699206026816281A1811F4615464FF03B
:101BE000000870074FEAD60100D0491C6182A58227
:101BF0002A460BA000F048FA0F2112A000F044FA88
:101C0000E781A4F810802FB1B42F03D0A580E6801F
:101C1000BDE8F081A680E580FAE7000044000020DE
:101C2000576964746842797465203D2025642C20CE
:101C300048656967687442797465203D2025640DA4
:101C40000A000000204550445F5749445448202F63
:101C50002038203D2025640D0A000000014908605D
:101C60007047000044000020F0B4284CA388834251
:101C700034D3E3888B4231D32346E7891E895D89BB
:101C8000CFB15A2F1AD0B42F1CD0B7F5877F38D1D7
:101C90000B46281A401E80B2218AD9B1012916D0DC
:101CA000022904D003292CD1F11A491E8BB2281A1B
:101CB000401E80B20EE003460846EDE7711A491E49
:101CC0008BB2E9E7301A401E83B2681AE2E7F11AD4
:101CD000491E8BB29E4201D3854203D2F0BC0CA0B8
:101CE00000F0D2B9618A414301EBD305216880201D
:101CF000002A4C5D03F0070220FA02F003D02043D3
:101D00004855F0BC704784434C55FAE74400002026
:101D100044656275673A20457863656564696E67F6
:101D200020646973706C617920626F756E64617292
:101D30006965730D0A000000704738B50B460092C4
:101D400004460022802100F008F8002804D0606DCD
:101D500040F020006065032038BD2DE9F0411D46AC
:101D600017460E460446DDF8188035E0681C33D06F
:101D70002DB1FEF7D7FCA0EB0800A8422CD32068B9
:101D8000416821F0E00141606068B0F5827F0BD1CD
:101D9000A068B0F5004F02D0B0F5806F04D1206884
:101DA000016821F040010160A06AB0F5005F0AD12E
:101DB000206801684DF6FF721140016020680168DB
:101DC00041F400510160012084F85100002084F8A2
:101DD00050000320BDE8F0812068806836EA0000EA
:101DE00004D00020B842C1D10020F3E70120F9E778
:101DF000704710B5FEF79CFCBDE81040FFF705B931
:101E000030B58FB001210804CDE900100024029400
:101E100002250491CDE907504FF4E010099068467F
:101E2000FEF738FE00B1FEE70F20CDE90A054FF4BA
:101E30008060CDE90C4002210AA80E94FEF724FD33
:101E400000B1FEE7FEF7CAFD4FF47A71B0FBF1F086
:101E5000FFF7C7F80420FFF7B7F800221146501E1D
:101E6000FEF7E0FC0FB030BD0D48016841F0010104
:101E7000016041680B4A1140416001680A4A114003
:101E80000160016821F480210160416821F4FE01B4
:101E900041604FF41F0181600449C003086070472E
:101EA000001002400000FFF8FFFFF6FE08ED00E022
:101EB0002DE9F041044600680169E26821F44051CF
:101EC000114301612169A0680843616908432168E1
:101ED000CA6841F20C639A430243CA6020684169B0
:101EE000A26921F44071114341614C492068642585
:101EF000322688423CD1FEF787FD00EBC00101EBA2
:101F0000001061688900B0FBF1F7FEF77DFD00EB82
:101F1000C00101EB00106168B0468900B0FBF1F030
:101F2000B0FBF5F06FF01801484307EB800106EBBA
:101F30000110B0FBF5F000F0F006FEF765FD00EBD8
:101F4000C00101EB001061688900B0FBF1F0B0FB4B
:101F5000F5F006EB0016FEF757FD00EBC00101EBB4
:101F6000001061688900B0FBF1F7FEF74DFD3BE022
:101F7000FEF73AFD00EBC00101EB0010616889003B
:101F8000B0FBF1F7FEF730FD00EBC00101EB0010F4
:101F90006168B0468900B0FBF1F0B0FBF5F06FF07E
:101FA0001801484307EB800106EB0110B0FBF5F088
:101FB00000F0F006FEF718FD00EBC00101EB001089
:101FC00061688900B0FBF1F0B0FBF5F006EB00169C
:101FD000FEF70AFD00EBC00101EB0010616889000B
:101FE000B0FBF1F7FEF700FD00EBC00101EB0010C4
:101FF00061688900B0FBF1F0B0FBF5F06FF01801FB
:10200000484307EB800108EB0110B0FBF5F02168B5
:1020100000F00F0030448860BDE8F08100380140D6
:102020002DE9F041984617460E460446069D1DE0F0
:10203000681C1BD02DB1FEF775FBA0EB0800A84271
:1020400014D92068C16821F4D071C1602068416949
:1020500021F001014161202084F8390084F83A0020
:10206000002084F838000320BDE8F0812068006873
:1020700036EA000004D00020B842D9D00020F3E7AF
:102080000120F9E7FEE7FEE70FB4054B10B503A901
:10209000044A029800F018F810BC5DF814FB000028
:1020A000812200083800002002E008C8121F08C181
:1020B000002AFAD170477047002001E001C1121FC9
:1020C000002AFBD1704700002DE9FF4F8BB09A46E4
:1020D0000F460546002606E025280BD052460D99EE
:1020E00090476D1C761C28780028F5D10FB030463B
:1020F000BDE8F08F0024A0460122604900E00443BF
:1021000015F8013F203B02FA03F00842F7D1287886
:102110002E2817D115F8010F44F004042A280ED0F8
:102120006FF02F022878A0F1300109290AD808EBB6
:10213000880102EB410100EB01086D1CF2E757F842
:10214000048B6D1C287869283ED006DC0028CDD091
:1021500063280BD0642804D136E0732810D075288A
:102160004BD052460D999047761C85E017F8040B2A
:102170008DF8000000208DF80100E946012003E001
:1021800057F8049B4FF0FF3061074FF0000401D473
:102190000AE0641C44450DDA8442FADB19F80410A5
:1021A0000029F6D106E0641C8442FCDB19F8041017
:1021B0000029F8D1264404E019F8010B52460D9984
:1021C0009047641EF8D257E001CF4FF00A0B002869
:1021D00002DA40422D2102E0210504D52B218DF8A1
:1021E0002410012103E0E10705D02021F7E70DF1DC
:1021F000200908910CE00021F9E701CF4FF00A0B0C
:10220000F9E75946FDF7C2FF01F1300209F8012D47
:102210000028F6D1ADEB090000F1200B600701D4D6
:102220004FF00108D84502DDA8EB0B0000E00020CC
:102230008046002406E009A85246005D0D999047AB
:10224000641C761C08988442F5DB04E0302052467A
:102250000D999047761CB8F10001A8F10108F5DC52
:1022600005E019F8010B52460D999047761CBBF119
:102270000001ABF1010BF4DC6D1C34E7092801000F
:1022800013B54FF6FF73012269460248FEF71EFFA1
:1022900000981CBDB400002010B5002821D0114BBF
:1022A0000022001F196803E0814203D80A464968EA
:1022B0000029F9D152B11368841A9C4204D10068F4
:1022C00018441060104602E0506000E0186039B118
:1022D00002680B1A934203D10B681A4402604968E2
:1022E000416010BD3C0000202DE9FE43FEF728FAB6
:1022F000FFF786FDFEF748FFFEF79EFFFEF76EFF35
:10230000FDF7BAFF10B186A0FFF7BEFE41F2B06044
:10231000044600F08FF95FEA00094FF0FF357DD0E9
:10232000204600F087F9070079D083A0FFF7ACFEC4
:102330004FF48774FF26A51F23462A46B02148463E
:102340000096FFF741FC23462A46B0213846009606
:10235000FFF73AFC4846FFF781FCFF20FEF7A4FF99
:102360003846FFF77BFCFF20FEF79EFF7BA0FFF7C0
:102370008BFE4846FFF772FC7E48FEF7AFFF3846FB
:10238000FFF76CFC7C48FEF7A9FF39464846FDF78D
:1023900035FF4FF4FA684046FEF7B4F84846FFF7B9
:1023A0005DFCFF20FEF780FF012423460022502120
:1023B0000A200094FFF722FA022300225A210A2061
:1023C0000094FFF71BFA0323002264210A200094E3
:1023D000FFF714FA032300226E210A200094FFF76E
:1023E0000DFA00250095CDE90154462278231146C7
:1023F0001420FFF713F90095CDE901544621782305
:1024000014220846FFF70AF90095CDE90154462247
:10241000782311461420FFF763FA01E077E078E0B3
:10242000CDE9005478238222462150200294FFF700
:1024300057FACDE90056514B51A200210A20FFF76F
:1024400085FBCDE90065514B51A214218220FFF795
:10245000B3FACDE90065494B504A32210A20FFF713
:1024600063F93846FFF7FAFBFF20FEF71DFFCDE9C1
:102470000054002314225F21A020FEF7C1FF009426
:10248000002314225F21D2200194FEF7B9FFCDE989
:1024900000545F237D22194655200294FFF7BEF8B1
:1024A000CDE90054692273234B2110460294FFF7B3
:1024B000B5F8CDE900563A4B3AA200218220FFF749
:1024C0007BFACDE90065394B39A214210A20FFF7C8
:1024D0003DFBCDE90056354B384A21210A20FFF754
:1024E00023F937A0FFF7D0FD39464846FDF786FEB1
:1024F0004046FEF707F836A0FFF7C6FDFDF7BEFF22
:102500004846FFF7C9FE3846FFF7C6FEFEE736A08D
:1025100000E03FA0FFF7B8FD2846BDE8FE830000BD
:10252000652D506170657220696E697420666169FD
:102530006C65640D0A0000004E6577496D61676542
:102540003A426C61636B496D61676520616E64201E
:10255000526564496D6167650D0A000073686F77A5
:1025600020696D61676520666F72206172726179A2
:102570000D0A000074270008243E00081400002003
:102580007761766573686172650000001C00002049
:10259000CEA2D1A9B5E7D7D300000000B168DE3ADA
:1025A00008000020C4E3BAC3616263000000002099
:1025B00068656C6C6F20776F726C640015CD5B077B
:1025C0004550445F446973706C61790D0A000000E6
:1025D000476F746F20536C656570206D6F64652E56
:1025E0002E2E0D0A000000004661696C656420749F
:1025F0006F206170706C7920666F7220626C61630D
:102600006B206D656D6F72792E2E2E0D0A00000005
:102610004661696C656420746F206170706C79200C
:10262000666F7220726564206D656D6F72792E2EF3
:102630002E0D0A00F0B50B30154D20F007010024D7
:10264000144A0FE003688B420BD38B4205D95E1A04
:1026500043184768C3E9006700E04368136002C09D
:1026600004E0021D10680028ECD12046002802D1A9
:10267000286808B10020F0BD064A07481060074AE4
:10268000121A22F00702C0E9002401202860D7E7CF
:10269000400000203C000020FC000020F8900020BA
:1026A0000000001A1A000001000A0A000008000ECB
:1026B000010E0110000A0A000008000410000005C5
:1026C00000030E00000A002300000001901A1A0007
:1026D0000001400A0A000008840E010E0110800A61
:1026E0000A00000800041000000500030E00000AA4
:1026F000002300000001A01A1A000001000A0A00CD
:102700000008840E010E0110900A0A000008B004AF
:1027100010000005B0030E00000AC02300000001F5
:10272000901A1A000001400A0A000008840E010EE7
:102730000110800A0A0000080004100000050003D0
:102740000E00000A002300000001901A1A00000188
:10275000200A0A000008840E010E0110100A0A0067
:10276000000800041000000500030E00000A00230A
:102770000000000100000000000000000000000058
:102780000000000000000000000000000000000049
:102790000000000000000000000000000000000039
:1027A0000000000000000000000000000000000029
:1027B0000000000000000000000000000000000019
:1027C0000000000000000000000000000000000009
:1027D00000000000000000000000000000000000F9
:1027E00000000000000000000000000000000000E9
:1027F00000000000000000000000000000000000D9
:1028000000000000000000000000000000000000C8
:1028100000000000000000000000000000000000B8
:1028200000000000000000000000000000000000A8
:102830000000000000000000000000000000000098
:102840000000000000000000000000000000000088
:102850000000000000000000000000000000000078
:102860000000000000000000000000000000000068
:102870000000000000000000000000000000000058
:102880000000000000000000000000000000000048
:102890000000000000000000000000000000000038
:1028A0000000000000000000000000000000000028
:1028B0000000000000000000000000000000000018
:1028C0000000000000000000000000000000000008
:1028D00000000000000000000000000000000000F8
:1028E00000000000000000000000000000000000E8
:1028F00000000000000000000000000000000000D8
:1029000000000000000000000000000000000000C7
:1029100000000000000000000000000000000000B7
:1029200000000000000000000000000000000000A7
:102930000000000000000000000000000000000097
:102940000000000000000000000000010000000086
:102950000000000000000000000000000000000077
:102960000001C000000000000000000000000000A6
:1029700000000000000000006000000000000000F7
:102980000000000000000000000000000000300017
:102990000000000000000000000000000000000037
:1029A000000000001800000000000000000000000F
:1029B000000000000000000000000C00000000000B
:1029C0000000000000000000000000000000000007
:1029D00006000000000000000000000000000000F1
:1029E00000000000000007000000000000000000E0
:1029F0000000000000000000000000000380000054
:102A000000000000000000000000000000000000C6
:102A1000000001C0000000000000000000000000F5
:102A2000000000000000000000E0000000000000C6
:102A3000000000000000000000000000000000F0A6
:102A40000000000000000000000000000000000086
:102A500000000000007800000000000000000000FE
:102A600000000000000000000000003C000000002A
:102A7000000000000800000000000000000000004E
:102A8000001C000000000000000008000000000022
:102A9000000000000000001E000000000000000018
:102AA0000C0000000000000000000000000F00000B
:102AB0000000000000000C0000000000000000000A
:102AC0000000000780000000000000000C00000073
:102AD00000000000000000000000000000000000F6
:102AE00000000E00000000000000000000000000D8
:102AF00000000000000000001E00000000000000B8
:102B000000000000000000000000000000001E00A7
:102B100000000000000000000000000000000000B5
:102B2000000000001E000000000000000000000087
:102B3000000000000000000000001F000000000076
:102B40000000000000000000000000000000000085
:102B50001F00000000000000000000000000000056
:102B60000000000000001F00000000000000000046
:102B70000000000000000000000000003F80000096
:102B80000000000000000000000000000000000045
:102B900000003F8000000000000000000000000076
:102BA00000000000000000003F8000000000000066
:102BB00000000000000000000000000000003FC016
:102BC0000000000000000000000000000000000005
:102BD000000000003FC000000000000000000000F6
:102BE000000000000000000000003FE000000000C6
:102BF00000000000000000000000000000000000D5
:102C00003FE00000000000000000000000000000A5
:102C10000000000000007FF0000000000000000045
:102C20000000000000000000000000007FF0000035
:102C30000000000000000000000000000000000094
:102C400000007FF000000000000000000000000015
:102C500000000000000000007FF000000000000005
:102C600000000000000000000000000000007FE005
:102C70000000000000000000000000000000000054
:102C8000000000007FE000000000000000000000E5
:102C9000000000000000000000007FC000000000F5
:102CA0000000000000000000000000000000040020
:102CB0007FC00000000000000000000000000000D5
:102CC0000000002002007F800000000000000000E3
:102CD000000000000000000000300300FF80000042
:102CE00000000000000000000000000000000038AC
:102CF0000380FF0000000000000000000000000052
:102D000000000000003C01E0FF00000000000000A7
:102D100000000000000000000000001E01F0FE00A6
:102D200000000000000000000000000000000000A3
:102D3000001F01F8FE00000000000000000000007D
:102D4000000000000000001F80FFFE0000000000E7
:102D5000000000000000000000000000000FC0FFA5
:102D6000FC00000000000000000000000000000067
:102D70000000000FE0FFFC00000000000000000069
:102D80000000000000000000000FF0FFF80000004D
:102D9000000000000000000000000000000000072C
:102DA000F0FFF8000000000000000000000000003C
:102DB000006000000007FFFFF800000000000000B6
:102DC0000000000000000038C0000003FFFFF0001A
:102DD000000000000000000000000000003FC000F4
:102DE0000003FFFFF00000000000000000000000F2
:102DF0000000001FC0000003FFFFF0000000000003
:102E00000000000000000000001FE0000001FFFFC4
:102E1000F000000000000000000000000000000FB3
:102E2000E0000001FFFFF0000000000000000000D3
:102E3000000000000007E0000001FFFFE0000000CC
:102E4000000000000000000000000007E00000009B
:102E5000FFFFE00000000000000000000000000094
:102E60000003F0000000FFFFE00000000000000091
:102E70000000000000000003F0000000FFFFE00081
:102E80000000000000000000000000000001F00051
:102E90000000FFFFE0000000000000000000000054
:102EA00000000000F800001FFFFFE000000000002D
:102EB00000000000000000000000F800001FFFFFFD
:102EC000E000000000000000000000000000000022
:102ED0007C00000FFFFFF000000000000000000079
:102EE0000000000000007C00000FFFFFF000000069
:102EF0000000000000000000000000003C0000078F
:102F0000FFFFF000000000000000000000000000D3
:102F100000003E000007FFFFF80000000000000076
:102F200000000000000000001E000003FFFFF8008A
:102F300000000000000000000000000000000F0082
:102F40000000FFFFFC000000000000000000000087
:102F5000000000000F0000007FFFFC0000000000E8
:102F600000000000000000000000078000007FFF5C
:102F7000FE00000000000000000000000000000053
:102F8000078000007FFFFE0000000000000000003E
:102F900000000000000003C00001FFFFFF00000070
:102FA00000000000000000000000000003E0000737
:102FB000FFFFFF8000000000000000000000000094
:102FC000000001F00007FFFFFFC00000000000004C
:102FD000000000000000000001F0000FFFFFFFC034
:102FE000000000000000000000000000000000F8E9
:102FF000000FFFFFFFE000000000000000000000E5
:103000000000000000FC000FFFFFFFF000000000C8
:103010000000000000000000000000FE000FFFFFA5
:10302000FFF00000000000000000000000000000B1
:1030300000FF001FFFFFFFF800000000000000007D
:1030400000000000000020FFC03FFFFFFFF0000075
:1030500000000000000000000000000030FFE0FF62
:10306000FFFFFE0000000000000000000000000064
:1030700000003FFFFFFFFFFFF00000000000000026
:1030800000000000000000007FFFFFFFFFFFC00006
:103090000000000000000000000000000003FFFF2F
:1030A000FFFFFFFF00000000000000000000000024
:1030B00000000001FFFFFFFFFFFE00000000000016
:1030C00000000000000000000000FFFFFFFFFFFC09
:1030D00000000000000000000000000000000000F0
:1030E0007FFFFFFFFFF8000000000000000000006D
:1030F0000000000000001FFFFFFFFFF800000000BD
:1031000000000000000000000000000007FFFFFFBB
:10311000FFF00000000000000000000000000000C0
:10312000000000FFFFFFFFE00000000000000000C3
:103130000000000000000000003FFFFFFFE0000073
:103140000000000000000000000000000000001F60
:10315000FFFFFFC0000000000000000000000000B2
:1031600000000000000FFFFFFFC000000000000093
:1031700000000000000000000000000FFFFFFFC083
:10318000000000000000000000000000000000003F
:10319000000FFFFFFFC00000000000000000000063
:1031A000000000000000000FFFFFFFC00000000053
:1031B00000000000000000000000000000FFFFFF12
:1031C000FFE0000000000000000000000000000020
:1031D000000803FFFFFFFFE0000000000000000008
:1031E000000000000000000FFFFFFFFFFFF00000E5
:1031F000000000000000000000000000000FFFFFC2
:10320000FFFFFFF8000000000000000000000000C9
:103210000000000FFFFFFFFFFFFC000000000000A8
:103220000000000000000000000FFFFFFFFFFFFE96
:10323000000000000000000000000000000000038B
:10324000FFFFFFFFFFFF0000000000000000000084
:10325000000000000000FFFFFFFFFFFF0000000074
:103260000000000000000000000000003FFFFFFF22
:10327000FFFC000000000000000000000000000053
:1032800000001FFFFFFFFFF800000000000000002B
:1032900000000000000000001FFFFFFFFF00000013
:1032A00000000000000000000000000000001FFF00
:1032B000FFFFFF0000000000000000000000000011
:1032C000000000001FFFFFFFFF00000000000000E3
:1032D000000000000000000000001FFFFFFFFF00D3
:1032E00000000000000000000000000000000000DE
:1032F0001FFFFFFFFF0000000000000000000000B3
:103300000000000000003FFFFFFFFF000000000082
:103310000000000000000000000000003FFFFFFF71
:10332000FF0000000000000000000000000000009E
:1033300000007FFFFFFFFF00000000000000000012
:1033400000000000000000007FFFFFFFFE00000003
:103350000000000000000000000000000000FFFF6F
:10336000FFFFFE0000000000000000000000000061
:1033700000000001FFFFFFFFFE0000000000000052
:1033800000000000000000000003FFFFFFFFFC0042
:103390000000000000000000000000000000000726
:1033A000FFFFFFC3F8000000000000000000000065
:1033B00000000000001FFFFFFF0070000000000081
:1033C0000000000000000000000000FFFFFFFE0002
:1033D00000000000000000000000000000000000ED
:1033E00000FFFFFFF80000000000000000000000E8
:1033F000000000000000007FFFFFF0000000000060
:103400000000000000000000000000000003FFFFBB
:10341000C0000000000000000000000000000000EC
:1034200000000003FFFF000000000000000000009B
:1034300000000000000000000003FFFE000000008C
:103440000000000000000000000000000000000379
:10345000FFFC000000000000000000000000000071
:1034600000000000000FFFF8000000000000000056
:1034700000000000000000000000001FFFF000003E
:10348000000000000000000000000000000000003C
:10349000000FFFF00000000000000000000000002E
:1034A0000000000000000007FFF000000000000026
:1034B0000000000000000000000000000003FFF01A
:1034C00000000000000000000000000000000000FC
:1034D00000000001FFF000000000000000000000FC
:1034E00000000000000000000001FFF000000000EC
:1034F00000000000000000000000000000000000CC
:10350000FFF00000000000000000000000000000CC
:10351000000000000000FFF00000000000000000BC
:10352000000000000000000000000000FFF00000AC
:10353000000000000000000000000000000000008B
:103540000000FFF800000000000000000000000084
:1035500000000000000000007FF8000000000000F4
:1035600000000000000000000000000000007FF8E4
:103570000000000000000000000000000000000F3C
:10358000FFFFC0007FF80000000000000000000006
:10359000000000007FFFFFFFFFC07FF80000000079
:1035A000000000000000000000000000000001FF1B
:1035B000FFF8000000000000000000000000000014
:1035C000000000000003FFFC0000000000000000FD
:1035D0000000000000000000000000003FFC0000B0
:1035E00000000000000000000000000000000000DB
:1035F00000003FFC00000000000000000000000090
:1036000000000000000000003FFC0000000000007F
:1036100000000000000000000000000000007FFE2D
:10362000000000000000000000000000000000009A
:1036300000000000FFFE000000000000000000008D
:1036400000000000000000000000FF8000000000FB
:103650000000000000000000000000000000000169
:10366000FF0000000000000000000000000000005B
:10367000000000000001FE0000000000000000004B
:10368000000000000000000000000001FC0000003D
:10369000000000000000000000000000000000002A
:1036A0000003F8000000000000000000000000001F
:1036B0000000000000000003F8000000000000000F
:1036C0000000000000000000000000000003F00007
:1036D00000000000000000000000000000000000EA
:1036E00000000007E00000000000000000000000F3
:1036F00000000000000000000007C0000000000003
:1037000000000000000000000000000000000007B2
:10371000C0000000000000000000000000000000E9
:1037200000000000000F800000000000000000000A
:1037300000000000000000000000000F000000007A
:103740000000000000000000000000000000000079
:10375000001F00000000000000000000000000004A
:10376000000000000000001E00000000000000003B
:10377000000000000000000000000000003E00000B
:103780000000000000000000000000000000000039
:103790000000007C000000000000000000000000AD
:1037A00000000000000000001FF800000000000002
:1037B000000000000000000000000000001FFFF8F3
:1037C00000000000000000000000000000000000F9
:1037D0000000001FF1F000000000000000000000E9
:1037E0000000000000000000008E01F0000000005A
:1037F00000000000000000000000000000000000C9
:1038000001E00000000000000000000000000000D7
:1038100000000000000001E00000000000000000C7
:1038200000000000000000000000000003C00000D5
:103830000000000000000000000000000000000088
:1038400000000780000000000000000000000000F1
:1038500000000000000000000780000000000000E1
:1038600000000000000000000000000000000F0049
:103870000000000000000000000000000000000048
:10388000000000001F000000000000000000000019
:10389000000000000000000000003E0000000000EA
:1038A0000000000000000000000000000000000018
:1038B0003C000000000000000000000000000000CC
:1038C0000000000000007C0000000000000000007C
:1038D000000000000000000000000000F8000000F0
:1038E00000000000000000000000000000000000D8
:1038F0000001F000000000000000000000000000D7
:103900000000000000000001F000000000000000C6
:103910000000000000000000000000000003E000C4
:103920000000000000000000000000000000000097
:1039300000000007C00000000000000000000000C0
:103940000000000000000000000F800000000000E8
:103950000000000000000000000000000000000F58
:103960000000000000000000000000000000000057
:1039700000000000001F0000000000000000000028
:1039800000000000000000000000003F00000000F8
:103990000000000000000000000000000000000027
:1039A000007F000000000000000000000000000098
:1039B000000000000000007F000000000000000088
:1039C00000000000000000000000000000FF0000F8
:1039D00000000000000000000000000000000000E7
:1039E000000001FF000000000000000000000000D7
:1039F000000000000000000001FE000000000000C8
:103A0000000000000000000000000000000003FEB5
:103A100000000000000000000000000000000000A6
:103A20000000000007C600000000000000000000C9
:103A3000000000000000000000000F8600000000F1
:103A40000000000000000000000000000000000076
:103A50000F04000000000000000000000000000053
:103A60000000000000001E04000000000000000034
:103A70000000000000000000000000003C0000000A
:103A80000000000000000000000000000000000036
:103A900000003800000000000000000000000000EE
:103AA00000000000000000007000000000000000A6
:103AB0000000000000000000000000000000E00026
:103AC00000000000000000000000000000000000F6
:103AD00000000001C0000000000000000000000025
:103AE0000000000000000000000180000000000055
:103AF00000000000000000000000000000000003C3
:103B000000000000000000000000000000000000B5
:103B1000000000000006000000000000000000009F
:103B200000000000000000000000000E0000000087
:103B30000000000000000000000000000000000085
:103B4000000C000000000000000000000000000069
:103B5000000000000000001800000000000000004D
:103B60000000000000000000000000000030000025
:103B70000000000000000000000000000000000045
:103B800000000060000000000000000000000000D5
:103B900000000000000000000040000000000000E5
:103BA0000000000000000000000000000000008095
:103BB0000000000000000000000000000000000005
:103BC00000000000010000000000000000000000F4
:103BD00000000000000000000000020000000000E3
:103BE00000000000000000000000000000000000D5
:103BF00000000000000000000000000000000000C5
:103C000000000000000004000000000000000000B0
:103C1000000000000000000000000000180000008C
:103C20000000000000000000000000000000000094
:103C30000000100000000000000000000000000074
:103C40000000000000000000200000000000000054
:103C50000000000000000000000000000000000064
:103C60000000000000000000000000000000000054
:103C70000000000000000000000000000000000044
:103C80000000000000000000000000000000000034
:103C90000000000000000000000000000000000024
:103CA0000000000000000000000000000000000014
:103CB0000000000000000000000000000000000004
:103CC00000000000000000000000000000000000F4
:103CD00000000000000000000000000000000000E4
:103CE00000000000000000000000000000000000D4
:103CF00000000000000000000000000000000000C4
:103D000000000000000000000000000000000000B3
:103D100000000000000000000000000000000000A3
:103D20000000000000000000000000000000000093
:103D30000000000000000000000000000000000083
:103D40000000000000000000000000000000000073
:103D50000000000000000000000000000000000063
:103D60000000000000000000000000000000000053
:103D70000000000000000000000000000000000043
:103D80000000000000000000000000000000000033
:103D90000000000000000000000000000000000023
:103DA0000000000000000000000000000000000013
:103DB0000000000000000000000000000000000003
:103DC00000000000000000000000000000000000F3
:103DD00000000000000000000000000000000000E3
:103DE00000000000000000000000000000000000D3
:103DF00000000000000000000000000000000000C3
:103E000000000000000000000000000000000000B2
:103E100000000000000000000000000000000000A2
:103E200000000000FFFFFFC00000000004000000D1
:103E300000000000000000000000FFFFFFC00000C5
:103E4000000004000000000000000000000000006E
:103E5000FFFFFFC0000000000400000000000000A1
:103E6000000000000000FFFFFFC0000000000E0087
:103E7000000000000000000000000000FFFFFFC085
:103E8000000000000E000000000000000000000024
:103E90000000FFFFFFC0000000001C000000000049
:103EA0000000000000000000FFFFFFC00000000055
:103EB0001C00000000000000000000000000FFFFE8
:103EC000FFC000000000080000000000000000002B
:103ED00000000000FFFFFFC0000000000000000025
:103EE00000000000000000000000FFFFFFC0000015
:103EF00000000000000300000000000000000000BF
:103F0000FFFFFFC0000000000000000700000000ED
:103F1000000000000000FFFFFFC0000000000000E4
:103F2000000F80000000000000000000FFFFFFC045
:103F3000000000000000001F8000000000000000E2
:103F40000000FFFFFFC0000000000000001F81E034
:103F50000000000000000000FFFFFFC000000000A4
:103F60000000001F80000000000000000000FFF0C3
:103F70007FC0000000000000001F80000000000063
:103F800000000000FFEFFFC0000000000000001F65
:103F900080000000000000000000FFEFFFC00000F4
:103FA00000000000001F8000000000000000000072
:103FB000FFF07FC0000000000000001F8000000034
:103FC000000000000000FFEFFFC000000000000044
:103FD000001F81C00000000000000000FFEFFFC0D4
:103FE000000000000000001F87F00000000000003B
:103FF0000000FFF7FFC0000000000000000F07F006
:104000000000000000000000FFE07FC00000000092
:104010000380000F0FF00000000000000000FFFF11
:10402000FFC00000000007E0000E1FE000000000DD
:1040300000000000FFFFFFC00000000001FC0004C2
:104040001FC00000000000000000FFF0FFC00000E3
:104050000000007800001F80000000000000000049
:10406000FFEF7FC000000000000000001F00000004
:10407000000000000000FFEF7FC000000000000013
:10408000000000030000000000000000FFEF7FC000
:104090000000000000000000000F00000000000011
:1040A0000000FFF0FFC00000000000380000001F0B
:1040B0000000000000000000FFFFFFC00000000043
:1040C00000700000003E0000000000000000FFEF54
:1040D0007FC00000000000E0000000F800000000C9
:1040E00000000000FFEF7FC00000000000C00000E3
:1040F00000000000000000000000FFEF7FC0000093
:1041000000000000000000000000000000000000AF
:10411000FFF0FFC0000000000000000000000000F1
:10412000000000000000FFFFFFC0000000000000D2
:10413000000000000000000000000000FFFFFFC0C2
:10414000000000000000000000000000000000006F
:104150000000FFFF7FC00000000000000000000022
:104160000000000000000000FFFFFFC00000000092
:104170000000000000000000000000000000FFFF41
:10418000FFC0000000000000000000000000000070
:1041900000000000FFF37FC00000000000000000EE
:1041A00000000000000000000000FFEB7FC00000E6
:1041B00000000000000000000000000000000000FF
:1041C000FFEB7FC0000000000000000000000000C6
:1041D000000000000000FFEB7FC0000000000000B6
:1041E000000007000000000000000000FFF0FFC01A
:1041F00000000000000000008780000000000000B8
:104200000000FFFFFFC00000000000000000FF8171
:104210000000000000000000FFEFFFC000000000F1
:1042200000000001FF878000000000000000FFEF99
:10423000FFC00000000000000001CCC780000000AB
:1042400000000000FFE07FC0000000000000000050
:10425000CCC78000000000000000FFFFFFC000008E
:10426000000000000000CFFC800000000000000003
:10427000FFFFFFC000000000000000007FF8F0001A
:10428000000000000000FFF07FC000000000000000
:1042900000007F3CF800000000000000FFEB7FC042
:1042A000000000000000001E0827F00000000000D1
:1042B0000000FFEB7FC0000000000000003FC00FC7
:1042C0003000000000000000FFEB7FC00000000095
:1042D0000000003DF0012000000000000000FFECA5
:1042E000FFC00000000000000018800380000000F4
:1042F00000000000FFFFFFC00000000000000019E8
:10430000800B8000000000000000FFFFFFC00000E5
:1043100000000000001FC006800000000000000038
:10432000FFF07FC0000000000000003D80010000A1
:10433000000000000000FFEFFFC0000000000000D0
:104340000038C2090000000000000000FFEFFFC0BD
:104350000000000000000018CF3FB0000000000087
:104360000000FFF7FFC0000000000000000F3FFE4C
:104370007800000000000000FF807FC00000000007
:10438000000000013FFE7000000000000000FFFF81
:10439000FFC00000000000000001BFF600000000A8
:1043A00000000000FFFFFFC000000000000000014F
:1043B000F2638000000000000000FFECFFC000007E
:1043C000000000000001F273800000000000000007
:1043D000FFED7FC00000000000000001FE0F800024
:1043E000000000000000FFEB7FC0000000000000A4
:1043F0000000FF830000000000000000FFF37FC00A
:1044000000000000000000008780000000000000A5
:104410000000FFFFFFC000000000000000000700D8
:104420000000000000000000FFFFFFC000000000CF
:104430000000000006000000000000000000FFF384
:104440007FC000000000000000000000000000002D
:1044500000000000FFEB7FC0000000000000000033
:1044600000000000000000000000FFEB7FC0000023
:10447000000000000000000000000000000000003C
:10448000FFEB7FC000000000000000000000000003
:10449000000000000000FFF0FFC00000000000006E
:1044A000000000000000000000000000FFFFFFC04F
:1044B00000000000000000000000000000000000FC
:1044C0000000FFE7FFC00000000000000000000047
:1044D0000000000000000000FFF9FFC00000000025
:1044E0000000000000000000000000000000FFFECF
:1044F0007FC000000000000000000000000000007D
:1045000000000000FFF9FFC00000000000000000F4
:1045100000000000000000000000FFE7FFC00000F6
:10452000000000200000000000000000000000006B
:10453000FFFFFFC00000000000FC000000000000C2
:10454000000000000000FFF07FC00000000001FE3E
:10455000000000000000000000000000FFEB7FC032
:104560000000000001FF000000000000000000004B
:104570000000FFEB7FC00000000181FF8000000011
:104580000000000000000000FFEB7FC000000003FF
:10459000E3FF800000000000000000000000FFECCE
:1045A000FFC000000007F3FFC00000000000000093
:1045B00000000000FFFFFFC00000000FFBFFC01F56
:1045C00080000000000000000000FFE7FFC00000C6
:1045D000000FFFFFC07FC0000000000000000000CF
:1045E000FFF9FFC00000000FFFFFC1FFE000000067
:1045F000000000000000FFFE7FC00000001FFFDF82
:10460000C3FFF0000000000000000000FFF9FFC041
:104610000000001FFFF3EBFFE000000000000000BF
:104620000000FFE7FFC00000001FF3E1D0FFE00043
:104630000000000000000000FFF9FFC00000001FA4
:10464000E1E1F0FFC0000000000000000000FFFEFC
:104650007FC00000000FE1E1F0FFC000000000009B
:1046600000000000FFF9FFC00000000FE1DFF9FFCC
:10467000C0000000000000000000FFE7FFC00000D5
:10468000000FFBFFFFF387000000000000000000A8
:10469000FFFFFFC00000000FFFFFFFE17F80000071
:1046A000000000000000FFFF7FC000000007FFFFC8
:1046B000FFC1FFC00000000000000000FFFFFFC0BE
:1046C000000003F8FFFFFFE3FFC000000000000050
:1046D0000000FFE7FFC000000FF87FFFFFF7FFC0FB
:1046E0000000000000000000FFF9FFC000003FF8DC
:1046F0007F9F3FBFFFC00000000000000000FFFEE2
:104700007FC000007FF89F863E3FFFC00000000092
:1047100000000000FFF9FFC000007FFF80C010FF15
:10472000FF800000000000000000FFE7FFC0000065
:10473000FFFFE00001BF1F8000000000000000003C
:10474000FFF9FFC00000FFFFFC0003FE1F00000098
:10475000000000000000FFFE7FC00001FFFFF60028
:1047600000061E000000000000000000FFF9FFC06E
:104770000000FFC7F00000071C0000000000000060
:104780000000FFE7FFC000007F87FE00007FF80009
:104790000000000000000000FFE7FFC000003F83B2
:1047A000C000008FC0000000000000000000FFF902
:1047B000FFC000001FC60000000FC0000000000086
:1047C00000000000FFFE7FC000000FFF800003FF1D
:1047D000C0000000000000000000FFF9FFC0000062
:1047E0001FFFF00001FFC0000000000000000000FB
:1047F000FFE7FFC000007FFFC000007FF000000067
:10480000000000000000FFF9FFC00000FFFF800073
:10481000001FFC000000000000000000FFFE7FC041
:104820000001FFC7FC0000070E00000000000000B0
:104830000000FFF9FFC00000FFC3F01C01C30F0020
:104840000000000000000000FFE7FFC00000FF8341
:10485000E0FC18FB0F800000000000000000FFE7F4
:10486000FFC000007FC7C7FC3EFF9F800000000024
:1048700000000000FFF9FFC000003FFDDFFE7FFFEA
:10488000FFC00000000000000000FFFE7FC000002D
:104890001FFFFFFFFFFFFFC000000000000000003F
:1048A000FFF9FFC000000FFE1FFFFFF87FC00000F0
:1048B000000000000000FFE7FFC0000003FE1FFF34
:1048C000FFF87FC00000000000000000FFF9FFC0FB
:1048D000000000061FFFFFF87F80000000000000BE
:1048E0000000FFFE7FC0000000073FFFFFFCFF80CD
:1048F0000000000000000000FFF9FFC000000007FA
:10490000FFFFFE7FBF000000000000000000FFE787
:10491000FFC00000000FFE3FFC3F800000000000D1
:1049200000000000FFFFFFC00000000FFE1CFC1F86
:10493000C0000000000000000000FFFFFFC00000FA
:10494000001FFC187E3FC0000000000000000000B7
:10495000FFFFFFC00000001FFE387F7FE000000067
:10496000000000000000FFFFFFC00000001FFF78F4
:104970007FFFE0000000000000000000FFFFFFC01C
:104980000000001FFFFFDBFFF00000000000000040
:104990000000FFFFFFC00000000FFFFFD9FFE00095
:1049A0000000000000000000FFFFFFC00000000F3B
:1049B000FFFFC07FC0000000000000000000FFFFFC
:1049C000FFC000000007FFFFC01F00000000000044
:1049D00000000000FFFFFFC000000007FBFFC00059
:1049E00000000000000000000000FFFFFFC000000A
:1049F0000003E1FF80000000000000000000000054
:104A0000FFFFFFC000000001C1FF800000000000A8
:104A1000000000000000FFFFFFC00000000001FFD9
:104A2000000000000000000000000000FFEF7FC059
:104A30000000000001FE0000000000000000000077
:104A40000000FFEF7FC00000000000F80000000041
:104A50000000000000000000FFC0FFC000000000D8
:104A60000000000000000000000000000000FFEF58
:104A7000FFC0000000000000000000000000000077
:104A800000000000FFFFFFC0000000000000000069
:104A900000000000000000000000FFF37FC00000E5
:104AA0000000000000000000000000000000000006
:104AB000FFEB7FC0000000000000000000000000CD
:104AC000000000000000FFEB7FC0000000000000BD
:104AD000000000000000000000000000FFEB7FC0AD
:104AE00000003000C00000000000000000000000D6
:104AF0000000FFF0FFC000007803C00000000000CD
:104B00000000000000000000FFFFFFC000007C0765
:104B1000C000000000000000000000000000FFFFD7
:104B2000FFC000007E0FC300000000000000000076
:104B300000000000FFF07FC000003F07C3800000BE
:104B400000000000000000000000FFEFFFC00000B8
:104B50001F87C300000000000000000000000000EC
:104B6000FFEFFFC000001FC783000000000000002F
:104B7000000000000000FFF7FFC000000FC7860024
:104B8000000000000000000000000000FFE07FC007
:104B9000000007C304000000000000000000000047
:104BA0000000FFFFFFC0000001C000000000000087
:104BB0000000000000000000FFFFFFC0000000C078
:104BC0000000000000000000000000000000FFFFE7
:104BD0007FC0000000000000000000000000001C7A
:104BE00000000000FFFFFFC0000000000000000008
:104BF00000000000003F00000000FFFFFFC00000B9
:104C000000000000000000000000003F80000000E5
:104C1000FFF37FC000000000000000000000000063
:104C20001C7F80000000FFEB7FC000000000000040
:104C30000000000000003E7FC0000000FFEB7FC0CE
:104C40000000000000000000000000007F7FC03C6A
:104C50000000FFEB7FC0000000000000000000002B
:104C600000007FFFC0FE0000FFF0FFC0000000005A
:104C700000000000000000007FFFC1FF0000FFFFF8
:104C8000FFC0000000000000000000000000FFF86E
:104C9000C3FF0000FFEFFFC00000000000000000A5
:104CA00000000000FE78F1FE0000FFEFFFC0001CD6
:104CB00000000180000000000000FC38F1FE000050
:104CC000FFE07FC00038000003808000000000008B
:104CD000FE3DF1FE0000FFFFFFC0007800000780EE
:104CE000000000000000FE7FFFCE0000FFFFFFC0BD
:104CF000006000000E180000000000007FFFFF872A
:104D0000F800FFF07FC0000180001E1C00000000C2
:104D100000014FFFFF87F800FFEB7FC0000180001C
:104D20001C1C00000000000F87FFFFCFF800FFEB06
:104D30007FC000010000100C00000000003F87E76A
:104D40003F7FF800FFEB7FC0000000000000000084
:104D50000000007FC8F31C7FF800FFECFFC00000DC
:104D6000000000000000000000FFF81011FCF0003F
:104D7000FFFFFFC00000000000000000000001FF76
:104D8000FE0003F8F000FFFFFFC00000000000007D
:104D90000000000001FFFF800008E000FFF07FC07E
:104DA0000000000000000000000000FE3F00001CAA
:104DB000C000FFEFFFC00000000000000000000086
:104DC000007E3F8000FF0000FFEFFFC000000000FA
:104DD000000000000000003E3000003E0000FFF731
:104DE000FFC000000000000000000000003F700055
:104DF000023E0000FF807FC00000000000000000B5
:104E00000000003FFE0001FE0000FFFFFFC00000A9
:104E1000000000000000000000FFF800007F80009C
:104E2000FFFFFFC00000000000000000000001FFC5
:104E30007980001CE000FFECFFC0000000000001D2
:104E4000E000000001FE3F0601087000FFED7FC09A
:104E5000000000000007F800000000FE3C1E19E8FA
:104E60007000FFEB7FC000000000000FF8000000A2
:104E7000007E38FF3FFCF800FFF37FC00000000019
:104E8000003FF8000000003FDFFF7FFFF800FFFF5A
:104E9000FFC000000000000FF0000000001FF3FF43
:104EA000FFE3F800FFFFFFC0000000000001C000AA
:104EB0000000000021FFFFE1F800FFF37FC00000C9
:104EC0000000000000000000000031FFFFE3F800D8
:104ED000FFEB7FC0000000000000000000000000A9
:104EE0003FFFFEFFF000FFEB7FC00000000000006E
:104EF0001C00000000003FCFFC7E0000FFEB7FC0E5
:104F00000000000000003800000000007F867C7E6A
:104F10000000FFF0FFC0000000000000780000006B
:104F200000007F843C7E0000FFFFFFC00000000007
:104F30000000F00000000000FFCE2FFF0000FFE7A0
:104F4000FFC0000000000001F000000000007FFF33
:104F500063FF0000FFF9FFC0000000000001C00077
:104F6000000000007FFFE1FF0000FFFE7FC00000A7
:104F7000000000000000000000007FFFC07C000077
:104F8000FFF9FFC00000000000000000000000006A
:104F90003F7FC0000000FFE7FFC0000000000000EE
:104FA0000000000000001C3FC0000000FFFFFFC029
:104FB000000000000000000000000000083F80002A
:104FC0000000FFF07FC000000000000000000000B3
:104FD0000000003F00000000FFEB7FC00000000069
:104FE0000000000000000000001C00000000FFEBBB
:104FF0007FC0000000000000000000000000000072
:1050000000000000FFEB7FC0000000000000000077
:1050100000000000000000000000FFECFFC00000E6
:105020000000000000000000000000000000000080
:10503000FFFFFFC0000000000000000000000000B3
:10504000000000000000FFE7FFC0000000000000BB
:10505000000000000000000000000000FFF9FFC099
:105060000000000000000000000000000000000040
:105070000000FFFE7FC000000000000000000000F4
:105080000000000000000000FFF9FFC00000000069
:105090000000000000000000000000000000FFE72A
:1050A000FFC0000000000000000000000000000041
:1050B00000000000FFF9FFC0000000000000000039
:1050C00000000000000000000000FFFE7FC00000A4
:1050D00000000000000000000000000000000000D0
:1050E000FFF9FFC000000000000000000000000009
:1050F000000000000000FFE7FFC00000000000000B
:10510000000000000000000000000000FFFFFFC0E2
:10511000000000000000000000000000000000008F
:105120000000FFFF7FC00000000000000000000042
:105130000000000000000000FFFFFFC000000000B2
:105140000000000000000000000000000000FFE779
:10515000FFC0000000000000000000000000000090
:1051600000000000FFF9FFC0000000000000000088
:1051700000000000000000000000FFFE7FC00000F3
:10518000000000000000000000000000000000001F
:10519000FFF9FFC000000000000000000000000058
:1051A000000000000000FFE7FFC00000000000005A
:1051B000000000000000000000000000FFF9FFC038
:1051C00000000000000000000000000000000000DF
:1051D0000000FFFE7FC00000000000000000000093
:1051E0000000000000000000FFF9FFC00000000008
:1051F0000000000000000000000000000000FFE7C9
:10520000FFC00000000000000000000000000000DF
:1052100000000000FFE7FFC00000000000000000E9
:1052200000000000000000000000FFF9FFC00000C7
:1052300000780000060000000000000000000000F0
:10524000FFFE7FC00000007E00000E000000000096
:10525000000000000000FFF9FFC00000003F000058
:105260001C0000000000000000000000FFE7FFC07D
:105270000000001F80003C00000000000000000053
:105280000000FFF9FFC00000000F800038000000A0
:105290000000000000000000FFFE7FC000000003CF
:1052A0000000200000000000000000000000FFF9E6
:1052B000FFC000000000000000000000000000002F
:1052C00000000000FFE7FFC0000000000000000039
:1052D00000000000000000000000FFE7FFC0000029
:1052E00000000000000000000000000000000000BE
:1052F000FFF9FFC0000000000000000000000000F7
:10530000000000000000FFFE7FC000000000000061
:10531000000000000000000000000000FFF9FFC0D6
:10532000000000000000000000000000000000007D
:105330000000FFE7FFC000000000000000000000C8
:105340000000000000000000FFF9FFC000000000A6
:105350000000000000000000000000000000FFFE50
:105360007FC00000000000000000000000000000FE
:1053700000000000FFF9FFC0000000000000000076
:1053800000000000000000000000FFE7FFC0000078
:10539000000000000000000000000000000000000D
:1053A000FFFFFFC000000000000000000000000040
:1053B000000000000000FFFFFFC000000000000030
:1053C000000000000000000000000000FFFFFFC020
:1053D00000000000000000000000000000000000CD
:1053E0000000FFFFFFC00000000000000000000000
:1053F0000000000000000000FFFFFFC000000000F0
:105400000000000000000000000000000000FFFF9E
:10541000FFC00000000000000000000000000000CD
:1054200000000000FFFFFFC00000000000000000BF
:1054300000000000000000000000FFFFFFC00000AF
:10544000000000000000000000000000000000005C
:10545000FFFFFFC00000000000000000000000008F
:10546000000000000000FFFFFFC00000000000007F
:10547000000000000000000000000000FFFFFFC06F
:10548000000000000000000000000000000000001C
:105490000000FFFFFFC0000000000000000000004F
:1054A0000000000000000000FFFFFFC0000000003F
:1054B0000000000000000000000000000000FFFFEE
:1054C000FFC000000000000000000000000000001D
:1054D00000000000000000000000000000000000CC
:1054E000001010101010000010000000006C484860
:1054F0000000000000000000001414287C287C2814
:105500005050000000103840403848701010000023
:10551000002050200C700814080000000000001843
:10552000202054483400000000101010100000002B
:1055300000000000000808101010101010080800EB
:1055400000202010101010101020200000107C10DF
:1055500028280000000000000000101010FE1010AD
:1055600010000000000000000000001810302000B3
:1055700000000000007C00000000000000000000AF
:105580000000003030000000000404080810102063
:1055900020400000003844444444444438000000A3
:1055A00000301010101010107C000000003844046F
:1055B000081020447C00000000384404180404440F
:1055C00038000000000C141424447E040E00000077
:1055D000003C20203804044438000000001C204017
:1055E0007844444438000000007C44040808081053
:1055F000100000000038444438444444380000009F
:1056000000384444443C04087000000000000030AE
:1056100030000030300000000000001818000018B2
:105620003020000000000C10608060100C000000B2
:10563000000000007C007C00000000000000C02092
:1056400018041820C00000000000182404081000EE
:10565000300000003844444C54544C40443800005E
:105660000030102828287C44EE00000000F8444454
:1056700078444444F8000000003C4440404040442A
:105680003800000000F0484444444448F000000062
:1056900000FC445070504044FC000000007E222872
:1056A0003828202070000000003C4440404E444414
:1056B0003800000000EE44447C444444EE00000006
:1056C000007C1010101010107C000000003C080836
:1056D000084848483000000000EE444850704844F4
:1056E000E600000000702020202024247C00000020
:1056F00000EE6C6C54544444EE00000000EE646410
:105700005454544CEC000000003844444444444495
:105710003800000000782424243820207000000085
:105720000038444444444444381C000000F84444D5
:1057300044784844E200000000344C4038040464DB
:105740005800000000FE92101010101038000000E9
:1057500000EE4444444444443800000000EE444415
:10576000282828101000000000EE444454545454DB
:105770002800000000C6442810102844C60000007D
:1057800000EE44282810101038000000007C440867
:10579000101020447C000000003820202020202011
:1057A00020203800004020202010100808080000A9
:1057B00000380808080808080808380000101028F1
:1057C0004400000000000000000000000000000095
:1057D000000000FE001008000000000000000000B3
:1057E00000000038443C44443E00000000C04058E3
:1057F00064444444F80000000000003C444040443D
:1058000038000000000C04344C4444443E000000C6
:1058100000000038447C40403C000000001C207C1C
:10582000202020207C000000000000364C4444442E
:105830003C04380000C0405864444444EE0000007A
:1058400000100070101010107C0000000010007894
:10585000080808080808700000C0405C48705048FC
:10586000DC00000000301010101010107C00000050
:10587000000000E854545454FE000000000000D81A
:1058800064444444EE0000000000003844444444B2
:1058900038000000000000D8644444447840E00030
:1058A000000000364C4444443C040E000000006CF0
:1058B000302020207C0000000000003C44380444DC
:1058C000780000000000207C202020221C00000026
:1058D000000000CC4444444C36000000000000EEC0
:1058E0004444282810000000000000EE44545454A2
:1058F00028000000000000CC48303048CC000000F8
:10590000000000EE44242818101078000000007CED
:10591000481020447C0000000008101010102010D7
:1059200010100800001010101010101010100000BF
:1059300000201010101008101010200000000000AF
:105940000024580000000000C4E300000000000034
:1059500000001DC01D803BFF3B073F777E76F8703F
:10596000FBFEFBFE3F773F773E73387038703BE0BD
:105970000000000000000000000000000000000027
:105980000000000000000000000000000000000017
:105990000000000000000000000000000000000007
:1059A00000000000000000000000000000000000F7
:1059B00000000000000000000000000000000000E7
:1059C00000000000000000000000000000000000D7
:1059D00000000000000000000000000000000000C7
:1059E0000000000000000000000000000000BAC33A
:1059F0000000000000000000300073FF700FFE1E6A
:105A00007E3C6E38EE30EFFFFC307C3038303E307C
:105A10007E30E030C1F00000000000000000000017
:105A20000000000000000000000000000000000076
:105A30000000000000000000000000000000000066
:105A40000000000000000000000000000000000056
:105A50000000000000000000000000000000000046
:105A60000000000000000000000000000000000036
:105A70000000000000000000000000000000000026
:105A80000000000000000000000000000000000016
:105A900000000000CAF70000000000000000300E07
:105AA000300E3FEE30EEFCFF76CE77FE7BFEFFFE43
:105AB000F3DEF3CE37EE3E6E3C0E303E00000000CB
:105AC00000000000000000000000000000000000D6
:105AD00000000000000000000000000000000000C6
